:100000000C9458000C9480000C9480000C94800098
:100010000C9480000C9480000C9480000C94800060
:100020000C9480000C9480000C9480000C94800050
:100030000C9480000C9480000C9480000C94800040
:100040000C943C060C9480000C94AC060C94860630
:100050000C9480000C9480000C9480000C94800020
:100060000C94DE060C94800000000000250028009F
:100070002B00040404040404040402020202020229
:10008000030303030303010204081020408001025C
:1000900004081020010204081020000000080002DB
:1000A0000100000304070000000000000000FD073D
:1000B00011241FBECFEFD8E0DEBFCDBF11E0A0E01E
:1000C000B1E0EAE9F4E102C005900D92AE3AB10761
:1000D000D9F723E0AEEAB1E001C01D92A232B20727
:1000E000E1F710E0C8E5D0E004C02197FE010E94CE
:1000F000450AC735D107C9F70E944A080C944B0A34
:100100000C94000090E0FC01E656FF4F2491FC01A6
:10011000EA57FF4F3491FC01EE58FF4FE491EE2374
:10012000C9F0222339F0233001F1A8F4213019F16C
:10013000223029F1F0E0EE0FFF1FE859FF4FA591A3
:10014000B4918FB7F894EC91611126C030953E239D
:100150003C938FBF08952730A9F02830C9F0243090
:1001600049F7809180008F7D03C0809180008F7758
:1001700080938000DFCF84B58F7784BDDBCF84B5DB
:100180008F7DFBCF8091B0008F778093B000D2CF6E
:100190008091B0008F7DF9CF3E2BDACF3FB7F89436
:1001A00080911D0290911E02A0911F02B091200229
:1001B00026B5A89B05C02F3F19F00196A11DB11DC2
:1001C0003FBFBA2FA92F982F8827BC01CD01620FFE
:1001D000711D811D911D42E0660F771F881F991FB9
:1001E0004A95D1F708958F929F92AF92BF92CF9286
:1001F000DF92EF92FF924B015C010E94CE006B01F7
:100200007C010E94CE006C197D098E099F09683E11
:10021000734081059105A8F321E0821A9108A10895
:10022000B10888EEC80E83E0D81EE11CF11C8114D1
:100230009104A104B10429F7FF90EF90DF90CF90D3
:10024000BF90AF909F908F90089508950895AF92BA
:10025000BF92CF92DF92EF92FF920F931F93CF93B3
:10026000DF936C017B018B01040F151FEB015E0115
:10027000AE18BF08C017D10759F06991D601ED91AA
:10028000FC910190F081E02DC6010995892B79F749
:10029000C501DF91CF911F910F91FF90EF90DF90FB
:1002A000CF90BF90AF900895FC01538D448D252FC2
:1002B00030E0842F90E0821B930B541710F0CF9600
:1002C000089501970895FC01918D828D981761F032
:1002D000A28DAE0FBF2FB11D5D968C91928D9F5F49
:1002E0009F73928F90E008958FEF9FEF0895FC0128
:1002F000918D828D981731F0828DE80FF11D858DDB
:1003000090E008958FEF9FEF0895FC01918D228D6D
:10031000892F90E0805C9F4F821B91098F739927F2
:10032000089581E792E00E94850121E0892B09F47C
:1003300020E0822F089580E090E0892B29F00E9430
:10034000910181110C9400000895FC01A48DA80F67
:10035000B92FB11DA35ABF4F2C91848D90E0019607
:100360008F739927848FA689B7892C93A089B18927
:100370008C91837080648C93938D848D981306C0C8
:100380000288F389E02D80818F7D80830895EF922C
:10039000FF920F931F93CF93DF93EC0181E0888F3F
:1003A0009B8D8C8D98131AC0E889F989808185FF0F
:1003B00015C09FB7F894EE89FF896083E889F989B1
:1003C00080818370806480839FBF81E090E0DF91B3
:1003D000CF911F910F91FF90EF900895F62E0B8D06
:1003E00010E00F5F1F4F0F731127E02E8C8D8E11C1
:1003F0000CC00FB607FCFACFE889F989808185FF28
:10040000F5CFCE010E94A501F1CFEB8DEC0FFD2FB2
:10041000F11DE35AFF4FF0829FB7F8940B8FEA89E2
:10042000FB8980818062CFCFCF93DF93EC01888DF1
:100430008823B9F0AA89BB89E889F9898C9185FD5F
:1004400003C0808186FD0DC00FB607FCF7CF8C91ED
:1004500085FFF2CF808185FFEDCFCE010E94A501FF
:10046000E9CFDF91CF9108952091CF01260F332757
:10047000331F21323105ECF420914702FC0190E05A
:1004800080E0243069F082E00895A091CF012191AD
:10049000AC0141555E4FA40FB52FB11D2C930196B1
:1004A000861798F38091CF01680F6093CF0180E0A9
:1004B000089581E008951092470281E080934602FA
:1004C0001092210261E082E10E94820061E083E1FA
:1004D0000E948200E9EBF0E080818E7F8083808142
:1004E0008D7F808388E48093B80085E48093BC008E
:1004F0000895CF93DF9391E09093AE018823B9F0F4
:10050000C091B800D091BA008091BC008A7B8093E2
:10051000BC0060E082E10E94820060E083E10E9412
:1005200082000E945B02D093BA00C093B800DF91B2
:10053000CF9108958F929F92AF92BF92CF92DF9208
:10054000EF92FF920F931F93CF93DF93D09170029E
:10055000D13208F0D7C0182FC0916F020E94CE0090
:100560006B017C018091470281116BC082E0809316
:100570004702109346028FEF809345021092440287
:10058000D0934302AFE4B2E0E3E2F2E080E0D813BC
:1005900091C01092220280912202CC0FC82BC093EE
:1005A000220280912102813009F088C0109221023C
:1005B0000E94CE006B017C01809122028093BB00DF
:1005C0008091490290914A02A0914B02B0914C0255
:1005D000892B8A2B8B2BA1F00E94CE00009149021F
:1005E00010914A0220914B0230914C026C197D0906
:1005F0008E099F09061717072807390708F442C014
:100600008091BC0083FDD8CF85EC8093BC000E9414
:10061000CE006B017C0180914702823009F450C00A
:10062000809145028F3F09F46FC08091450280326E
:1006300009F46CC080914502803309F469C084E0FC
:1006400026C08091490290914A02A0914B02B0913C
:100650004C02892B8A2B8B2B09F484CF0E94CE006D
:100660008090490290904A02A0904B02B0904C02B8
:100670006C197D098E099F0986169706A806B9068A
:1006800008F070CF809148020E94790285E01092B4
:100690004E021092700210924D02DF91CF911F9185
:1006A0000F91FF90EF90DF90CF90BF90AF909F9011
:1006B0008F9008959D9191938F5F69CF85EEA5CF1F
:1006C0008091490290914A02A0914B02B0914C0254
:1006D000892B8A2B8B2B09F49ECF0E94CE00009190
:1006E000490210914A0220914B0230914C026C1940
:1006F0007D098E099F09061717072807390708F093
:100700008ACFC0CF81E0C3CF80E0C1CF82E0BFCF2E
:1007100083E0BDCFAF92BF92CF92DF92EF92FF9274
:100720000F931F93CF93DF931F92CDB7DEB77C015A
:1007300069835A016901DC0116968D919C91179786
:1007400015962C9131E030934D0220936F02109258
:100750004E0210927002DC01ED91FC910280F38157
:10076000E02D41E050E0BE016F5F7F4F09958501AC
:10077000CA0CDB1C0C151D0571F0F70186819781F1
:10078000D8016D918D01DC01ED91FC910190F0811A
:10079000E02D0995EFCF81E00E949A0280E00F9052
:1007A000DF91CF911F910F91FF90EF90DF90CF904D
:1007B000BF90AF9008950895E091170280911602BE
:1007C000E81730F4F0E0EE50FE4F808190E008959D
:1007D0008FEF9FEF089590911702809116022FEFEF
:1007E0003FEF981748F4E92FF0E0EE50FE4F2081DC
:1007F00030E09F5F90931702C9010895809116021F
:1008000090911702891B990B0895CF92DF92EF9276
:10081000FF920F931F93CF93DF937C01CB018A014B
:1008200020914D02222389F0EB016B01C40ED51EED
:10083000CC15DD0569F06991D701ED91FC9101902E
:10084000F081E02DC7010995F3CF642F0E94340297
:10085000C801DF91CF911F910F91FF90EF90DF9032
:10086000CF900895CF93DF931F92CDB7DEB7698302
:1008700020914D022223F9F020917002203258F08D
:1008800021E030E0FC013383228390E080E00F9090
:10089000DF91CF91089580914E02E82FF0E0E15B67
:1008A000FD4F998190838F5F80934E0280937002F9
:1008B00081E090E0ECCF61E0CE0101960E9434022D
:1008C000F7CF90E080E00895FC0101900020E9F767
:1008D0003197AF01481B590BBC0181E792E00C94A2
:1008E00027018F929F92AF92BF920F931F93CF9346
:1008F000DF93CDB7DEB7A1970FB6F894DEBF0FBE7A
:10090000CDBF19A2423008F44AE08E010F5D1F4F9F
:10091000842E912CB12CA12CA50194010E94230AB4
:10092000E62FB901CA01EA30F4F4E05DD801EE9394
:100930008D01232B242B252B79F790E080E0109755
:1009400019F0CD010E946404A1960FB6F894DEBFA1
:100950000FBECDBFDF91CF911F910F91BF90AF9090
:100960009F908F900895E95CE1CFCF92DF92EF9254
:10097000FF92CF93DF9397FF1BC06B017C016DE269
:1009800081E792E00E94C701EC0166277727CB013F
:100990006C197D098E099F094AE00E9471048C0F31
:1009A0009D1FDF91CF91FF90EF90DF90CF90089542
:1009B0004AE0DF91CF91FF90EF90DF90CF900C94C1
:1009C00071044F925F926F927F928F929F92AF923B
:1009D000BF92CF92DF92EF92FF920F931F93CF932C
:1009E000DF931F92CDB7DEB75C0169834A017901BD
:1009F000DC0116968D919C91179715962C9131E0FC
:100A000030934D0220936F0210924E0210927002AA
:100A1000DC01ED91FC910280F381E02D41E050E09A
:100A2000BE016F5F7F4F099581E00E949A02182FE7
:100A3000C12C8111D6C0CE2CF501D5800E94CE00EC
:100A40002B013C0180914702811169C00E2DF0E21B
:100A5000FC1508F400E281E080934702809346028F
:100A60009FEF9093450210924402900F909343029F
:100A70008093220280912202DD0CD82AD092220299
:100A800080912102813009F088C0109221020E94D9
:100A9000CE002B013C01809122028093BB0080910B
:100AA000490290914A02A0914B02B0914C02892BCD
:100AB0008A2B8B2BA1F00E94CE002091490230910D
:100AC0004A0240914B0250914C0264197509860903
:100AD0009709261737074807590708F441C080913E
:100AE000BC0083FDD8CF85EC8093BC000E94CE0073
:100AF0002B013C0180914702813009F450C0809164
:100B00004402801710F400914402E3E2F2E0A2EF05
:100B1000B1E0101749F181918D931F5FFACF809159
:100B2000490290914A02A0914B02B0914C02892B4C
:100B30008A2B8B2B09F486CF0E94CE00209149028C
:100B400030914A0240914B0250914C026419750950
:100B500086099709261737074807590708F072CF03
:100B6000809148020E947902109217021093160297
:100B70008401E80CF91C0E151F0599F1D501169694
:100B80008D919C91DC01ED91FC910284F385E02D27
:100B90000995F80181938F01EECF85EEA5CF809165
:100BA000490290914A02A0914B02B0914C02892BCC
:100BB0008A2B8B2B09F49ECF0E94CE0020914902F4
:100BC00030914A0240914B0250914C0264197509D0
:100BD00086099709261737074807590708F08ACF6B
:100BE000BFCF8C2D0F90DF91CF911F910F91FF9070
:100BF000EF90DF90CF90BF90AF909F908F907F90BD
:100C00006F905F904F90089585ED8093BC00809128
:100C1000490290914A02A0914B02B0914C02079672
:100C2000A11DB11D23E0B695A795979587952A95A7
:100C3000D1F72091BC0024FD03C010924702089513
:100C40004091490250914A0260914B0270914C02CE
:100C5000452B462B472B69F30097A105B10541F0C1
:100C600025E32A95F1F700000197A109B109E1CF29
:100C7000809148020C9479021F920F920FB60F9246
:100C800011242F933F938F939F93AF93BF938091A2
:100C9000190290911A02A0911B02B0911C0230918E
:100CA000180223E0230F2D3758F50196A11DB11D21
:100CB000209318028093190290931A02A0931B02AA
:100CC000B0931C0280911D0290911E02A0911F0200
:100CD000B09120020196A11DB11D80931D02909339
:100CE0001E02A0931F02B0932002BF91AF919F916B
:100CF0008F913F912F910F900FBE0F901F901895DD
:100D000026E8230F0296A11DB11DD2CF1F920F928C
:100D10000FB60F9211242F933F934F935F936F93CE
:100D20007F938F939F93AF93BF93EF93FF9381E74D
:100D300092E00E94A501FF91EF91BF91AF919F9129
:100D40008F917F916F915F914F913F912F910F9074
:100D50000FBE0F901F9018951F920F920FB60F9213
:100D600011242F938F939F93EF93FF93E091810230
:100D7000F09182028081E0918702F091880282FDE9
:100D80001BC0908180918A028F5F8F7320918B02AC
:100D9000821741F0E0918A02F0E0EF58FD4F958F05
:100DA00080938A02FF91EF919F918F912F910F90E5
:100DB0000FBE0F901F9018958081F4CF1F920F9255
:100DC0000FB60F9211242F933F934F935F936F931E
:100DD0007F938F939F93AF93BF93EF93FF938091F4
:100DE000B900887F803609F44AC0F0F5883209F4EA
:100DF000A7C018F5803109F49BC0B8F4882309F422
:100E0000F9C0883009F494C0FF91EF91BF91AF9180
:100E10009F918F917F916F915F914F913F912F9112
:100E20000F900FBE0F901F901895883109F488C05D
:100E3000803251F78093450214C0803409F49DC07C
:100E400040F48033B9F38833F9F68093450285EC9A
:100E5000B0C0803509F485C0883509F496C088345F
:100E600099F60E940406D0CF883909F48CC038F571
:100E7000883729F050F4883611F0803729F683E05E
:100E8000809347021092F10157C0883809F47BC063
:100E9000803919F0803809F0B7CF8091F1018032A4
:100EA00008F071C0E091F10181E08E0F8093F101B3
:100EB0008091BB00F0E0EF52FE4F80833DC0803B4D
:100EC00039F0E0F4803A09F479C0883A09F09CCF0F
:100ED00084E0809347021092D0011092CF01E091FC
:100EE0001402F091150209958091CF0181110FC074
:100EF00081E08093CF011092AF0109C0803C09F4DA
:100F0000A6CF883C09F4A3CF883B09F07DCFE091C0
:100F1000D00181E08E0F8093D001F0E0E155FE4FCB
:100F200080818093BB009091D0018091CF0129C036
:100F3000809122028093BB0085EC8093BC0064CF3B
:100F40009091440280914302981758F5E091440231
:100F500081E08E0F80934402F0E0ED5DFD4F8081D3
:100F6000E9CFE091440281E08E0F809344028091AA
:100F7000BB00F0E0ED5DFD4F8083909144028091D5
:100F800043029817C8F285E8D8CFE091440281E087
:100F90008E0F809344028091BB00F0E0ED5DFD4F29
:100FA00080838091460281115CCF81E08093210291
:100FB00084EA8093BC001092470226CF85EC809390
:100FC000BC00109247028091F101803230F4E09130
:100FD000F101F0E0EF52FE4F10826091F10170E0FC
:100FE000E0911202F091130281ED91E009951092C7
:100FF000F1010ACF1092450234CFE1E7F2E013820B
:10100000128248EE53E060E070E0448355836683CB
:10101000778384E091E09183808385EC90E09587ED
:10102000848784EC90E09787868780EC90E0918BB2
:10103000808B81EC90E0938B828B82EC90E0958B9F
:10104000848B86EC90E0978B868B118E128E138E9C
:10105000148EAEE0B3E013961C921E921297149673
:101060004D935D936D937C93179786E191E0119674
:101070009C938E93EAE1F3E0128284E6838381E01D
:10108000848388E291E09183808389E18583B783BB
:10109000A6830895CF93DF9300D01F92CDB7DEB71C
:1010A000789484B5826084BD84B5816084BD85B543
:1010B000826085BD85B5816085BD80916E0081604F
:1010C00080936E00109281008091810082608093F5
:1010D00081008091810081608093810080918000F7
:1010E0008160809380008091B10084608093B10022
:1010F0008091B00081608093B00080917A0084601C
:1011000080937A0080917A00826080937A00809147
:101110007A00816080937A0080917A008068809361
:101120007A001092C100E0918102F091820282E087
:101130008083E0917D02F0917E021082E0917F0237
:10114000F09180028FEC808310928902E0918502F9
:10115000F091860286E08083E0918302F091840220
:10116000808180618083E0918302F091840280819C
:1011700088608083E0918302F0918402808180689E
:101180008083E0918302F091840280818F7D80834F
:1011900005E211E036E2E32E31E0F32EDD24D394B4
:1011A000109217021092160210924E0210927002C4
:1011B0000E945B021093150200931402F092130236
:1011C000E09212021982D0921C0321E030E0AE01BD
:1011D0004F5F5F4F6FE08AE193E00E94E1048981F5
:1011E000823309F021C18CE291E00E94640421E085
:1011F00030E0AE014F5F5F4F6FE08AE193E00E9405
:10120000E104698170E090E080E040E10E947104B7
:1012100087E391E00E946404198221E030E0AE018E
:101220004F5F5F4F63E28AE193E00E94E1048981AE
:101230008F7E898384E680931D0321E030E0AE0138
:101240004F5F5F4F63E28AE193E00E948A03198255
:1012500021E030E0AE014F5F5F4F60E28AE193E052
:101260000E94E104898187708062898321E030E0F7
:10127000AE014F5F5F4F60E28AE193E00E948A0314
:101280008AE391E00E94640468EE73E080E090E0FD
:101290000E94F30000E010E01B8221E030E0AE018C
:1012A0004D5F5F4F67E28AE193E00E94E10421E035
:1012B00030E0AE014F5F5F4F68E28AE193E00E9449
:1012C000E10421E030E0AE014E5F5F4F69E28AE168
:1012D00093E00E94E10420911D033A813203200132
:1012E000112457FE03C08FE7480E511C440C452CB7
:1012F000441C5508052C000C660877081B8221E069
:1013000030E0AE014D5F5F4F67E28AE193E00E94FB
:10131000E10421E030E0AE014F5F5F4F6AE28AE115
:1013200093E00E94E10421E030E0AE014E5F5F4FA8
:101330006BE28AE193E00E94E10420911D033A816F
:1013400032034001112497FE03C08FE7880E911CE1
:10135000880C892C881C9908092C000CAA08BB0849
:101360001B8221E030E0AE014D5F5F4F67E28AE112
:1013700093E00E94E10421E030E0AE014F5F5F4F57
:101380006CE28AE193E00E94E10421E030E0AE01EA
:101390004E5F5F4F6DE28AE193E00E94E10420918D
:1013A0001D033A81320360011124D7FE03C08FE789
:1013B000C80ED11CCC0CCD2CCC1CDD080D2C000C87
:1013C000EE08FF0885E991E00E946404C301B201C0
:1013D0000E94B50489E991E00E946404C501B4014A
:1013E0000E94B50482EA91E00E946404C701B6013C
:1013F0000E94B5048BEA91E00E94640487E391E0C7
:101400000E9464046CE271E080E090E00E94F300CE
:101410000115110509F440CF0E949101882309F4B8
:101420003BCF0E94000038CF89E491E00E94640421
:1014300087E391E00E94640468EE73E080E090E04E
:101440000E94F300ADCEA1E21A2EAA1BBB1BFD0128
:101450000DC0AA1FBB1FEE1FFF1FA217B307E40793
:10146000F50720F0A21BB30BE40BF50B661F771FEB
:10147000881F991F1A9469F76095709580959095CB
:101480009B01AC01BD01CF010895EE0FFF1F059038
:0A149000F491E02D0994F894FFCFC9
:10149A0000000000C70127015401140285016301FD
:1014AA00770100000000320405046104DB03FE0337
:1014BA00EB03DC0300000000E1048A03636869703F
:1014CA00206964203A20000D0A00416363656C6557
:1014DA00726174696F6E3A0A00496E697469616C67
:1014EA00697A6174696F6E206661696C65642C2023
:1014FA00706C6561736520636865636B20746865E9
:10150A0020636F6E6E656374696F6E20616E64200E
:10151A00493243206164647265737320736574741D
:10152A00696E677300783A20002067092020793AAB
:0E153A00200020670920207A3A200020670058
:00000001FF
